{
  "_format": "hh-sol-artifact-1",
  "contractName": "SPPS",
  "sourceName": "contracts/SPPS.sol",
  "abi": [
    {
      "inputs": [
        {
          "internalType": "uint256",
          "name": "yield",
          "type": "uint256"
        },
        {
          "components": [
            {
              "internalType": "uint256[2]",
              "name": "pi_a",
              "type": "uint256[2]"
            },
            {
              "internalType": "uint256[2][2]",
              "name": "pi_b",
              "type": "uint256[2][2]"
            },
            {
              "internalType": "uint256[2]",
              "name": "pi_c",
              "type": "uint256[2]"
            }
          ],
          "internalType": "struct SPPS.Proof",
          "name": "proof",
          "type": "tuple"
        },
        {
          "internalType": "string",
          "name": "balanceHash",
          "type": "string"
        },
        {
          "internalType": "uint256",
          "name": "blockNumber",
          "type": "uint256"
        }
      ],
      "name": "addPeriodProof",
      "outputs": [],
      "stateMutability": "nonpayable",
      "type": "function"
    },
    {
      "inputs": [
        {
          "internalType": "string",
          "name": "newSinal",
          "type": "string"
        }
      ],
      "name": "addSignal",
      "outputs": [],
      "stateMutability": "nonpayable",
      "type": "function"
    },
    {
      "inputs": [
        {
          "internalType": "address",
          "name": "trader",
          "type": "address"
        },
        {
          "internalType": "uint256",
          "name": "tradeId",
          "type": "uint256"
        },
        {
          "internalType": "uint256",
          "name": "tradeBlock",
          "type": "uint256"
        }
      ],
      "name": "changeTradeTime",
      "outputs": [],
      "stateMutability": "nonpayable",
      "type": "function"
    },
    {
      "inputs": [
        {
          "internalType": "address",
          "name": "trader",
          "type": "address"
        }
      ],
      "name": "getProofLen",
      "outputs": [
        {
          "internalType": "uint256",
          "name": "",
          "type": "uint256"
        }
      ],
      "stateMutability": "view",
      "type": "function"
    },
    {
      "inputs": [
        {
          "internalType": "address",
          "name": "trader",
          "type": "address"
        }
      ],
      "name": "getTradeLen",
      "outputs": [
        {
          "internalType": "uint256",
          "name": "",
          "type": "uint256"
        }
      ],
      "stateMutability": "view",
      "type": "function"
    },
    {
      "inputs": [],
      "name": "getTradersCount",
      "outputs": [
        {
          "internalType": "uint256",
          "name": "",
          "type": "uint256"
        }
      ],
      "stateMutability": "view",
      "type": "function"
    },
    {
      "inputs": [
        {
          "internalType": "address",
          "name": "",
          "type": "address"
        }
      ],
      "name": "metaData",
      "outputs": [
        {
          "internalType": "string",
          "name": "",
          "type": "string"
        }
      ],
      "stateMutability": "view",
      "type": "function"
    },
    {
      "inputs": [
        {
          "internalType": "string",
          "name": "_metaData",
          "type": "string"
        }
      ],
      "name": "newTrader",
      "outputs": [],
      "stateMutability": "nonpayable",
      "type": "function"
    },
    {
      "inputs": [
        {
          "internalType": "address",
          "name": "",
          "type": "address"
        },
        {
          "internalType": "uint256",
          "name": "",
          "type": "uint256"
        }
      ],
      "name": "periodProofs",
      "outputs": [
        {
          "internalType": "uint256",
          "name": "yield",
          "type": "uint256"
        },
        {
          "components": [
            {
              "internalType": "uint256[2]",
              "name": "pi_a",
              "type": "uint256[2]"
            },
            {
              "internalType": "uint256[2][2]",
              "name": "pi_b",
              "type": "uint256[2][2]"
            },
            {
              "internalType": "uint256[2]",
              "name": "pi_c",
              "type": "uint256[2]"
            }
          ],
          "internalType": "struct SPPS.Proof",
          "name": "proof",
          "type": "tuple"
        },
        {
          "internalType": "uint256",
          "name": "blockNumber",
          "type": "uint256"
        },
        {
          "internalType": "string",
          "name": "newBalanceHash",
          "type": "string"
        }
      ],
      "stateMutability": "view",
      "type": "function"
    },
    {
      "inputs": [
        {
          "internalType": "address",
          "name": "",
          "type": "address"
        },
        {
          "internalType": "uint256",
          "name": "",
          "type": "uint256"
        }
      ],
      "name": "signals",
      "outputs": [
        {
          "internalType": "uint256",
          "name": "blockNumber",
          "type": "uint256"
        },
        {
          "internalType": "string",
          "name": "hash",
          "type": "string"
        }
      ],
      "stateMutability": "view",
      "type": "function"
    },
    {
      "inputs": [
        {
          "internalType": "uint256",
          "name": "",
          "type": "uint256"
        }
      ],
      "name": "traders",
      "outputs": [
        {
          "internalType": "address",
          "name": "",
          "type": "address"
        }
      ],
      "stateMutability": "view",
      "type": "function"
    }
  ],
  "bytecode": "0x608060405234801561001057600080fd5b50611782806100206000396000f3fe608060405234801561001057600080fd5b50600436106100a95760003560e01c80632f629985116100715780632f6299851461017657806332080d60146101a657806371736f25146101c45780639d722489146101e05780639dff14cb14610213578063a712da5514610244576100a9565b80630686ddd9146100ae5780630cafc6a3146100de578063135e563d146100fa57806319380c8a1461012a5780632eea92d61461015a575b600080fd5b6100c860048036038101906100c39190610b5b565b610260565b6040516100d59190610c18565b60405180910390f35b6100f860048036038101906100f39190610c70565b610300565b005b610114600480360381019061010f9190610cc3565b61036c565b6040516101219190610cff565b60405180910390f35b610144600480360381019061013f9190610b5b565b6103ab565b6040516101519190610d29565b60405180910390f35b610174600480360381019061016f9190610da9565b6103f7565b005b610190600480360381019061018b9190610b5b565b6104ad565b60405161019d9190610d29565b60405180910390f35b6101ae6104f9565b6040516101bb9190610d29565b60405180910390f35b6101de60048036038101906101d99190610e1b565b610505565b005b6101fa60048036038101906101f59190610ea6565b61066e565b60405161020a9493929190611070565b60405180910390f35b61022d60048036038101906102289190610ea6565b610854565b60405161023b9291906110bf565b60405180910390f35b61025e60048036038101906102599190610da9565b61091d565b005b6003602052806000526040600020600091509050805461027f9061111e565b80601f01602080910402602001604051908101604052809291908181526020018280546102ab9061111e565b80156102f85780601f106102cd576101008083540402835291602001916102f8565b820191906000526020600020905b8154815290600101906020018083116102db57829003601f168201915b505050505081565b80600160008573ffffffffffffffffffffffffffffffffffffffff1673ffffffffffffffffffffffffffffffffffffffff16815260200190815260200160002083815481106103525761035161114f565b5b906000526020600020906002020160000181905550505050565b6000818154811061037c57600080fd5b906000526020600020016000915054906101000a900473ffffffffffffffffffffffffffffffffffffffff1681565b6000600160008373ffffffffffffffffffffffffffffffffffffffff1673ffffffffffffffffffffffffffffffffffffffff168152602001908152602001600020805490509050919050565b6000339080600181540180825580915050600190039060005260206000200160009091909190916101000a81548173ffffffffffffffffffffffffffffffffffffffff021916908373ffffffffffffffffffffffffffffffffffffffff1602179055508181600360003373ffffffffffffffffffffffffffffffffffffffff1673ffffffffffffffffffffffffffffffffffffffff16815260200190815260200160002091826104a8929190611364565b505050565b6000600260008373ffffffffffffffffffffffffffffffffffffffff1673ffffffffffffffffffffffffffffffffffffffff168152602001908152602001600020805490509050919050565b60008080549050905090565b6000604051806080016040528087815260200186803603810190610529919061164c565b815260200183815260200185858080601f016020809104026020016040519081016040528093929190818152602001838380828437600081840152601f19601f820116905080830192505050505050508152509050600260003373ffffffffffffffffffffffffffffffffffffffff1673ffffffffffffffffffffffffffffffffffffffff1681526020019081526020016000208190806001815401808255809150506001900390600052602060002090600b020160009091909190915060008201518160000155602082015181600101600082015181600001906002610611929190610a0a565b50602082015181600201906002610629929190610a4a565b50604082015181600601906002610641929190610a0a565b50505060408201518160090155606082015181600a019081610663919061167a565b505050505050505050565b6002602052816000526040600020818154811061068a57600080fd5b90600052602060002090600b02016000915091505080600001549080600101604051806060016040529081600082016002806020026040519081016040528092919082600280156106f0576020028201915b8154815260200190600101908083116106dc575b5050505050815260200160028201600280602002604051908101604052809291906000905b8282101561076e5783826002020160028060200260405190810160405280929190826002801561075a576020028201915b815481526020019060010190808311610746575b505050505081526020019060010190610715565b505050508152602001600682016002806020026040519081016040528092919082600280156107b2576020028201915b81548152602001906001019080831161079e575b5050505050815250509080600901549080600a0180546107d19061111e565b80601f01602080910402602001604051908101604052809291908181526020018280546107fd9061111e565b801561084a5780601f1061081f5761010080835404028352916020019161084a565b820191906000526020600020905b81548152906001019060200180831161082d57829003601f168201915b5050505050905084565b6001602052816000526040600020818154811061087057600080fd5b90600052602060002090600202016000915091505080600001549080600101805461089a9061111e565b80601f01602080910402602001604051908101604052809291908181526020018280546108c69061111e565b80156109135780601f106108e857610100808354040283529160200191610913565b820191906000526020600020905b8154815290600101906020018083116108f657829003601f168201915b5050505050905082565b6000604051806040016040528043815260200184848080601f016020809104026020016040519081016040528093929190818152602001838380828437600081840152601f19601f820116905080830192505050505050508152509050600160003373ffffffffffffffffffffffffffffffffffffffff1673ffffffffffffffffffffffffffffffffffffffff168152602001908152602001600020819080600181540180825580915050600190039060005260206000209060020201600090919091909150600082015181600001556020820151816001019081610a02919061167a565b505050505050565b8260028101928215610a39579160200282015b82811115610a38578251825591602001919060010190610a1d565b5b509050610a469190610a9a565b5090565b82600280028101928215610a89579160200282015b82811115610a8857825182906002610a78929190610a0a565b5091602001919060020190610a5f565b5b509050610a969190610ab7565b5090565b5b80821115610ab3576000816000905550600101610a9b565b5090565b5b80821115610ad75760008181610ace9190610adb565b50600201610ab8565b5090565b506000815560010160009055565b6000604051905090565b600080fd5b600080fd5b600073ffffffffffffffffffffffffffffffffffffffff82169050919050565b6000610b2882610afd565b9050919050565b610b3881610b1d565b8114610b4357600080fd5b50565b600081359050610b5581610b2f565b92915050565b600060208284031215610b7157610b70610af3565b5b6000610b7f84828501610b46565b91505092915050565b600081519050919050565b600082825260208201905092915050565b60005b83811015610bc2578082015181840152602081019050610ba7565b60008484015250505050565b6000601f19601f8301169050919050565b6000610bea82610b88565b610bf48185610b93565b9350610c04818560208601610ba4565b610c0d81610bce565b840191505092915050565b60006020820190508181036000830152610c328184610bdf565b905092915050565b6000819050919050565b610c4d81610c3a565b8114610c5857600080fd5b50565b600081359050610c6a81610c44565b92915050565b600080600060608486031215610c8957610c88610af3565b5b6000610c9786828701610b46565b9350506020610ca886828701610c5b565b9250506040610cb986828701610c5b565b9150509250925092565b600060208284031215610cd957610cd8610af3565b5b6000610ce784828501610c5b565b91505092915050565b610cf981610b1d565b82525050565b6000602082019050610d146000830184610cf0565b92915050565b610d2381610c3a565b82525050565b6000602082019050610d3e6000830184610d1a565b92915050565b600080fd5b600080fd5b600080fd5b60008083601f840112610d6957610d68610d44565b5b8235905067ffffffffffffffff811115610d8657610d85610d49565b5b602083019150836001820283011115610da257610da1610d4e565b5b9250929050565b60008060208385031215610dc057610dbf610af3565b5b600083013567ffffffffffffffff811115610dde57610ddd610af8565b5b610dea85828601610d53565b92509250509250929050565b600080fd5b60006101008284031215610e1257610e11610df6565b5b81905092915050565b60008060008060006101608688031215610e3857610e37610af3565b5b6000610e4688828901610c5b565b9550506020610e5788828901610dfb565b94505061012086013567ffffffffffffffff811115610e7957610e78610af8565b5b610e8588828901610d53565b9350935050610140610e9988828901610c5b565b9150509295509295909350565b60008060408385031215610ebd57610ebc610af3565b5b6000610ecb85828601610b46565b9250506020610edc85828601610c5b565b9150509250929050565b600060029050919050565b600081905092915050565b6000819050919050565b610f0f81610c3a565b82525050565b6000610f218383610f06565b60208301905092915050565b6000602082019050919050565b610f4381610ee6565b610f4d8184610ef1565b9250610f5882610efc565b8060005b83811015610f89578151610f708782610f15565b9650610f7b83610f2d565b925050600181019050610f5c565b505050505050565b600060029050919050565b600081905092915050565b6000819050919050565b6000610fbd8383610f3a565b60408301905092915050565b6000602082019050919050565b610fdf81610f91565b610fe98184610f9c565b9250610ff482610fa7565b8060005b8381101561102557815161100c8782610fb1565b965061101783610fc9565b925050600181019050610ff8565b505050505050565b610100820160008201516110446000850182610f3a565b5060208201516110576040850182610fd6565b50604082015161106a60c0850182610f3a565b50505050565b6000610160820190506110866000830187610d1a565b611093602083018661102d565b6110a1610120830185610d1a565b8181036101408301526110b48184610bdf565b905095945050505050565b60006040820190506110d46000830185610d1a565b81810360208301526110e68184610bdf565b90509392505050565b7f4e487b7100000000000000000000000000000000000000000000000000000000600052602260045260246000fd5b6000600282049050600182168061113657607f821691505b602082108103611149576111486110ef565b5b50919050565b7f4e487b7100000000000000000000000000000000000000000000000000000000600052603260045260246000fd5b600082905092915050565b7f4e487b7100000000000000000000000000000000000000000000000000000000600052604160045260246000fd5b60008190508160005260206000209050919050565b60006020601f8301049050919050565b600082821b905092915050565b60006008830261121a7fffffffffffffffffffffffffffffffffffffffffffffffffffffffffffffffff826111dd565b61122486836111dd565b95508019841693508086168417925050509392505050565b6000819050919050565b600061126161125c61125784610c3a565b61123c565b610c3a565b9050919050565b6000819050919050565b61127b83611246565b61128f61128782611268565b8484546111ea565b825550505050565b600090565b6112a4611297565b6112af818484611272565b505050565b5b818110156112d3576112c860008261129c565b6001810190506112b5565b5050565b601f821115611318576112e9816111b8565b6112f2846111cd565b81016020851015611301578190505b61131561130d856111cd565b8301826112b4565b50505b505050565b600082821c905092915050565b600061133b6000198460080261131d565b1980831691505092915050565b6000611354838361132a565b9150826002028217905092915050565b61136e838361117e565b67ffffffffffffffff81111561138757611386611189565b5b611391825461111e565b61139c8282856112d7565b6000601f8311600181146113cb57600084156113b9578287013590505b6113c38582611348565b86555061142b565b601f1984166113d9866111b8565b60005b82811015611401578489013582556001820191506020850194506020810190506113dc565b8683101561141e578489013561141a601f89168261132a565b8355505b6001600288020188555050505b50505050505050565b600080fd5b61144282610bce565b810181811067ffffffffffffffff8211171561146157611460611189565b5b80604052505050565b6000611474610ae9565b90506114808282611439565b919050565b600067ffffffffffffffff8211156114a05761149f611189565b5b602082029050919050565b60006114be6114b984611485565b61146a565b905080602084028301858111156114d8576114d7610d4e565b5b835b8181101561150157806114ed8882610c5b565b8452602084019350506020810190506114da565b5050509392505050565b600082601f8301126115205761151f610d44565b5b600261152d8482856114ab565b91505092915050565b600067ffffffffffffffff82111561155157611550611189565b5b602082029050919050565b600061156f61156a84611536565b61146a565b9050806040840283018581111561158957611588610d4e565b5b835b818110156115b2578061159e888261150b565b84526020840193505060408101905061158b565b5050509392505050565b600082601f8301126115d1576115d0610d44565b5b60026115de84828561155c565b91505092915050565b600061010082840312156115fe576115fd611434565b5b611608606061146a565b905060006116188482850161150b565b600083015250604061162c848285016115bc565b60208301525060c06116408482850161150b565b60408301525092915050565b6000610100828403121561166357611662610af3565b5b6000611671848285016115e7565b91505092915050565b61168382610b88565b67ffffffffffffffff81111561169c5761169b611189565b5b6116a6825461111e565b6116b18282856112d7565b600060209050601f8311600181146116e457600084156116d2578287015190505b6116dc8582611348565b865550611744565b601f1984166116f2866111b8565b60005b8281101561171a578489015182556001820191506020850194506020810190506116f5565b868310156117375784890151611733601f89168261132a565b8355505b6001600288020188555050505b50505050505056fea2646970667358221220e8a8cfd655da44a865dfaaf4ab478a23f22e886b5a21f69503626af93116318d64736f6c63430008130033",
  "linkReferences": {},
  "deployedLinkReferences": {}
}