{
  "_format": "hh-sol-artifact-1",
  "contractName": "SPPS",
  "sourceName": "contracts/SPPS.sol",
  "abi": [
    {
      "inputs": [
        {
          "internalType": "uint256",
          "name": "yield",
          "type": "uint256"
        },
        {
          "components": [
            {
              "internalType": "uint256[2]",
              "name": "pi_a",
              "type": "uint256[2]"
            },
            {
              "internalType": "uint256[2][2]",
              "name": "pi_b",
              "type": "uint256[2][2]"
            },
            {
              "internalType": "uint256[2]",
              "name": "pi_c",
              "type": "uint256[2]"
            }
          ],
          "internalType": "struct SPPS.Proof",
          "name": "proof",
          "type": "tuple"
        },
        {
          "internalType": "string",
          "name": "balanceHash",
          "type": "string"
        },
        {
          "internalType": "uint256",
          "name": "blockNumber",
          "type": "uint256"
        }
      ],
      "name": "addPeriodProof",
      "outputs": [],
      "stateMutability": "nonpayable",
      "type": "function"
    },
    {
      "inputs": [
        {
          "internalType": "string",
          "name": "newSinal",
          "type": "string"
        }
      ],
      "name": "addSignal",
      "outputs": [],
      "stateMutability": "nonpayable",
      "type": "function"
    },
    {
      "inputs": [
        {
          "internalType": "address",
          "name": "trader",
          "type": "address"
        },
        {
          "internalType": "uint256",
          "name": "tradeId",
          "type": "uint256"
        },
        {
          "internalType": "uint256",
          "name": "tradeBlock",
          "type": "uint256"
        }
      ],
      "name": "changeTradeTime",
      "outputs": [],
      "stateMutability": "nonpayable",
      "type": "function"
    },
    {
      "inputs": [
        {
          "internalType": "address",
          "name": "trader",
          "type": "address"
        },
        {
          "internalType": "uint256",
          "name": "index",
          "type": "uint256"
        }
      ],
      "name": "getPeriodProof",
      "outputs": [
        {
          "components": [
            {
              "internalType": "uint256",
              "name": "yield",
              "type": "uint256"
            },
            {
              "components": [
                {
                  "internalType": "uint256[2]",
                  "name": "pi_a",
                  "type": "uint256[2]"
                },
                {
                  "internalType": "uint256[2][2]",
                  "name": "pi_b",
                  "type": "uint256[2][2]"
                },
                {
                  "internalType": "uint256[2]",
                  "name": "pi_c",
                  "type": "uint256[2]"
                }
              ],
              "internalType": "struct SPPS.Proof",
              "name": "proof",
              "type": "tuple"
            },
            {
              "internalType": "uint256",
              "name": "blockNumber",
              "type": "uint256"
            },
            {
              "internalType": "string",
              "name": "newBalanceHash",
              "type": "string"
            }
          ],
          "internalType": "struct SPPS.PeriodProof",
          "name": "",
          "type": "tuple"
        }
      ],
      "stateMutability": "view",
      "type": "function"
    },
    {
      "inputs": [
        {
          "internalType": "address",
          "name": "trader",
          "type": "address"
        }
      ],
      "name": "getProofLen",
      "outputs": [
        {
          "internalType": "uint256",
          "name": "",
          "type": "uint256"
        }
      ],
      "stateMutability": "view",
      "type": "function"
    },
    {
      "inputs": [
        {
          "internalType": "address",
          "name": "trader",
          "type": "address"
        },
        {
          "internalType": "uint256",
          "name": "index",
          "type": "uint256"
        }
      ],
      "name": "getSignal",
      "outputs": [
        {
          "components": [
            {
              "internalType": "uint256",
              "name": "blockNumber",
              "type": "uint256"
            },
            {
              "internalType": "string",
              "name": "hash",
              "type": "string"
            }
          ],
          "internalType": "struct SPPS.Signal",
          "name": "",
          "type": "tuple"
        }
      ],
      "stateMutability": "view",
      "type": "function"
    },
    {
      "inputs": [
        {
          "internalType": "address",
          "name": "trader",
          "type": "address"
        }
      ],
      "name": "getTradeLen",
      "outputs": [
        {
          "internalType": "uint256",
          "name": "",
          "type": "uint256"
        }
      ],
      "stateMutability": "view",
      "type": "function"
    },
    {
      "inputs": [],
      "name": "getTradersCount",
      "outputs": [
        {
          "internalType": "uint256",
          "name": "",
          "type": "uint256"
        }
      ],
      "stateMutability": "view",
      "type": "function"
    },
    {
      "inputs": [
        {
          "internalType": "address",
          "name": "",
          "type": "address"
        }
      ],
      "name": "metaData",
      "outputs": [
        {
          "internalType": "string",
          "name": "",
          "type": "string"
        }
      ],
      "stateMutability": "view",
      "type": "function"
    },
    {
      "inputs": [
        {
          "internalType": "string",
          "name": "_metaData",
          "type": "string"
        }
      ],
      "name": "newTrader",
      "outputs": [],
      "stateMutability": "nonpayable",
      "type": "function"
    },
    {
      "inputs": [
        {
          "internalType": "address",
          "name": "",
          "type": "address"
        },
        {
          "internalType": "uint256",
          "name": "",
          "type": "uint256"
        }
      ],
      "name": "periodProofs",
      "outputs": [
        {
          "internalType": "uint256",
          "name": "yield",
          "type": "uint256"
        },
        {
          "components": [
            {
              "internalType": "uint256[2]",
              "name": "pi_a",
              "type": "uint256[2]"
            },
            {
              "internalType": "uint256[2][2]",
              "name": "pi_b",
              "type": "uint256[2][2]"
            },
            {
              "internalType": "uint256[2]",
              "name": "pi_c",
              "type": "uint256[2]"
            }
          ],
          "internalType": "struct SPPS.Proof",
          "name": "proof",
          "type": "tuple"
        },
        {
          "internalType": "uint256",
          "name": "blockNumber",
          "type": "uint256"
        },
        {
          "internalType": "string",
          "name": "newBalanceHash",
          "type": "string"
        }
      ],
      "stateMutability": "view",
      "type": "function"
    },
    {
      "inputs": [
        {
          "internalType": "address",
          "name": "",
          "type": "address"
        },
        {
          "internalType": "uint256",
          "name": "",
          "type": "uint256"
        }
      ],
      "name": "signals",
      "outputs": [
        {
          "internalType": "uint256",
          "name": "blockNumber",
          "type": "uint256"
        },
        {
          "internalType": "string",
          "name": "hash",
          "type": "string"
        }
      ],
      "stateMutability": "view",
      "type": "function"
    },
    {
      "inputs": [
        {
          "internalType": "uint256",
          "name": "",
          "type": "uint256"
        }
      ],
      "name": "traders",
      "outputs": [
        {
          "internalType": "address",
          "name": "",
          "type": "address"
        }
      ],
      "stateMutability": "view",
      "type": "function"
    }
  ],
  "bytecode": "0x608060405234801561001057600080fd5b50611d97806100206000396000f3fe608060405234801561001057600080fd5b50600436106100cf5760003560e01c806332080d601161008c5780639d722489116100665780639d722489146102365780639dff14cb14610269578063a712da551461029a578063e56b9d24146102b6576100cf565b806332080d60146101cc5780633efe8b45146101ea57806371736f251461021a576100cf565b80630686ddd9146100d45780630cafc6a314610104578063135e563d1461012057806319380c8a146101505780632eea92d6146101805780632f6299851461019c575b600080fd5b6100ee60048036038101906100e99190610ffc565b6102e6565b6040516100fb91906110b9565b60405180910390f35b61011e60048036038101906101199190611111565b610386565b005b61013a60048036038101906101359190611164565b6103f2565b60405161014791906111a0565b60405180910390f35b61016a60048036038101906101659190610ffc565b610431565b60405161017791906111ca565b60405180910390f35b61019a6004803603810190610195919061124a565b61047d565b005b6101b660048036038101906101b19190610ffc565b610533565b6040516101c391906111ca565b60405180910390f35b6101d461057f565b6040516101e191906111ca565b60405180910390f35b61020460048036038101906101ff9190611297565b61058b565b6040516102119190611511565b60405180910390f35b610234600480360381019061022f9190611558565b6107c6565b005b610250600480360381019061024b9190611297565b61092f565b6040516102609493929190611626565b60405180910390f35b610283600480360381019061027e9190611297565b610b15565b604051610291929190611675565b60405180910390f35b6102b460048036038101906102af919061124a565b610bde565b005b6102d060048036038101906102cb9190611297565b610ccb565b6040516102dd91906116e2565b60405180910390f35b6003602052806000526040600020600091509050805461030590611733565b80601f016020809104026020016040519081016040528092919081815260200182805461033190611733565b801561037e5780601f106103535761010080835404028352916020019161037e565b820191906000526020600020905b81548152906001019060200180831161036157829003601f168201915b505050505081565b80600160008573ffffffffffffffffffffffffffffffffffffffff1673ffffffffffffffffffffffffffffffffffffffff16815260200190815260200160002083815481106103d8576103d7611764565b5b906000526020600020906002020160000181905550505050565b6000818154811061040257600080fd5b906000526020600020016000915054906101000a900473ffffffffffffffffffffffffffffffffffffffff1681565b6000600160008373ffffffffffffffffffffffffffffffffffffffff1673ffffffffffffffffffffffffffffffffffffffff168152602001908152602001600020805490509050919050565b6000339080600181540180825580915050600190039060005260206000200160009091909190916101000a81548173ffffffffffffffffffffffffffffffffffffffff021916908373ffffffffffffffffffffffffffffffffffffffff1602179055508181600360003373ffffffffffffffffffffffffffffffffffffffff1673ffffffffffffffffffffffffffffffffffffffff168152602001908152602001600020918261052e929190611979565b505050565b6000600260008373ffffffffffffffffffffffffffffffffffffffff1673ffffffffffffffffffffffffffffffffffffffff168152602001908152602001600020805490509050919050565b60008080549050905090565b610593610de1565b600260008473ffffffffffffffffffffffffffffffffffffffff1673ffffffffffffffffffffffffffffffffffffffff16815260200190815260200160002082815481106105e4576105e3611764565b5b90600052602060002090600b0201604051806080016040529081600082015481526020016001820160405180606001604052908160008201600280602002604051908101604052809291908260028015610653576020028201915b81548152602001906001019080831161063f575b5050505050815260200160028201600280602002604051908101604052809291906000905b828210156106d1578382600202016002806020026040519081016040528092919082600280156106bd576020028201915b8154815260200190600101908083116106a9575b505050505081526020019060010190610678565b50505050815260200160068201600280602002604051908101604052809291908260028015610715576020028201915b815481526020019060010190808311610701575b505050505081525050815260200160098201548152602001600a8201805461073c90611733565b80601f016020809104026020016040519081016040528092919081815260200182805461076890611733565b80156107b55780601f1061078a576101008083540402835291602001916107b5565b820191906000526020600020905b81548152906001019060200180831161079857829003601f168201915b505050505081525050905092915050565b60006040518060800160405280878152602001868036038101906107ea9190611c61565b815260200183815260200185858080601f016020809104026020016040519081016040528093929190818152602001838380828437600081840152601f19601f820116905080830192505050505050508152509050600260003373ffffffffffffffffffffffffffffffffffffffff1673ffffffffffffffffffffffffffffffffffffffff1681526020019081526020016000208190806001815401808255809150506001900390600052602060002090600b0201600090919091909150600082015181600001556020820151816001016000820151816000019060026108d2929190610e0f565b506020820151816002019060026108ea929190610e4f565b50604082015181600601906002610902929190610e0f565b50505060408201518160090155606082015181600a0190816109249190611c8f565b505050505050505050565b6002602052816000526040600020818154811061094b57600080fd5b90600052602060002090600b02016000915091505080600001549080600101604051806060016040529081600082016002806020026040519081016040528092919082600280156109b1576020028201915b81548152602001906001019080831161099d575b5050505050815260200160028201600280602002604051908101604052809291906000905b82821015610a2f57838260020201600280602002604051908101604052809291908260028015610a1b576020028201915b815481526020019060010190808311610a07575b5050505050815260200190600101906109d6565b50505050815260200160068201600280602002604051908101604052809291908260028015610a73576020028201915b815481526020019060010190808311610a5f575b5050505050815250509080600901549080600a018054610a9290611733565b80601f0160208091040260200160405190810160405280929190818152602001828054610abe90611733565b8015610b0b5780601f10610ae057610100808354040283529160200191610b0b565b820191906000526020600020905b815481529060010190602001808311610aee57829003601f168201915b5050505050905084565b60016020528160005260406000208181548110610b3157600080fd5b906000526020600020906002020160009150915050806000015490806001018054610b5b90611733565b80601f0160208091040260200160405190810160405280929190818152602001828054610b8790611733565b8015610bd45780601f10610ba957610100808354040283529160200191610bd4565b820191906000526020600020905b815481529060010190602001808311610bb757829003601f168201915b5050505050905082565b6000604051806040016040528043815260200184848080601f016020809104026020016040519081016040528093929190818152602001838380828437600081840152601f19601f820116905080830192505050505050508152509050600160003373ffffffffffffffffffffffffffffffffffffffff1673ffffffffffffffffffffffffffffffffffffffff168152602001908152602001600020819080600181540180825580915050600190039060005260206000209060020201600090919091909150600082015181600001556020820151816001019081610cc39190611c8f565b505050505050565b610cd3610e9f565b600160008473ffffffffffffffffffffffffffffffffffffffff1673ffffffffffffffffffffffffffffffffffffffff1681526020019081526020016000208281548110610d2457610d23611764565b5b906000526020600020906002020160405180604001604052908160008201548152602001600182018054610d5790611733565b80601f0160208091040260200160405190810160405280929190818152602001828054610d8390611733565b8015610dd05780601f10610da557610100808354040283529160200191610dd0565b820191906000526020600020905b815481529060010190602001808311610db357829003601f168201915b505050505081525050905092915050565b604051806080016040528060008152602001610dfb610eb9565b815260200160008152602001606081525090565b8260028101928215610e3e579160200282015b82811115610e3d578251825591602001919060010190610e22565b5b509050610e4b9190610eec565b5090565b82600280028101928215610e8e579160200282015b82811115610e8d57825182906002610e7d929190610e0f565b5091602001919060020190610e64565b5b509050610e9b9190610f09565b5090565b604051806040016040528060008152602001606081525090565b6040518060600160405280610ecc610f2d565b8152602001610ed9610f4f565b8152602001610ee6610f2d565b81525090565b5b80821115610f05576000816000905550600101610eed565b5090565b5b80821115610f295760008181610f209190610f7c565b50600201610f0a565b5090565b6040518060400160405280600290602082028036833780820191505090505090565b60405180604001604052806002905b610f66610f2d565b815260200190600190039081610f5e5790505090565b506000815560010160009055565b6000604051905090565b600080fd5b600080fd5b600073ffffffffffffffffffffffffffffffffffffffff82169050919050565b6000610fc982610f9e565b9050919050565b610fd981610fbe565b8114610fe457600080fd5b50565b600081359050610ff681610fd0565b92915050565b60006020828403121561101257611011610f94565b5b600061102084828501610fe7565b91505092915050565b600081519050919050565b600082825260208201905092915050565b60005b83811015611063578082015181840152602081019050611048565b60008484015250505050565b6000601f19601f8301169050919050565b600061108b82611029565b6110958185611034565b93506110a5818560208601611045565b6110ae8161106f565b840191505092915050565b600060208201905081810360008301526110d38184611080565b905092915050565b6000819050919050565b6110ee816110db565b81146110f957600080fd5b50565b60008135905061110b816110e5565b92915050565b60008060006060848603121561112a57611129610f94565b5b600061113886828701610fe7565b9350506020611149868287016110fc565b925050604061115a868287016110fc565b9150509250925092565b60006020828403121561117a57611179610f94565b5b6000611188848285016110fc565b91505092915050565b61119a81610fbe565b82525050565b60006020820190506111b56000830184611191565b92915050565b6111c4816110db565b82525050565b60006020820190506111df60008301846111bb565b92915050565b600080fd5b600080fd5b600080fd5b60008083601f84011261120a576112096111e5565b5b8235905067ffffffffffffffff811115611227576112266111ea565b5b602083019150836001820283011115611243576112426111ef565b5b9250929050565b6000806020838503121561126157611260610f94565b5b600083013567ffffffffffffffff81111561127f5761127e610f99565b5b61128b858286016111f4565b92509250509250929050565b600080604083850312156112ae576112ad610f94565b5b60006112bc85828601610fe7565b92505060206112cd858286016110fc565b9150509250929050565b6112e0816110db565b82525050565b600060029050919050565b600081905092915050565b6000819050919050565b600061131283836112d7565b60208301905092915050565b6000602082019050919050565b611334816112e6565b61133e81846112f1565b9250611349826112fc565b8060005b8381101561137a5781516113618782611306565b965061136c8361131e565b92505060018101905061134d565b505050505050565b600060029050919050565b600081905092915050565b6000819050919050565b60006113ae838361132b565b60408301905092915050565b6000602082019050919050565b6113d081611382565b6113da818461138d565b92506113e582611398565b8060005b838110156114165781516113fd87826113a2565b9650611408836113ba565b9250506001810190506113e9565b505050505050565b61010082016000820151611435600085018261132b565b50602082015161144860408501826113c7565b50604082015161145b60c085018261132b565b50505050565b600082825260208201905092915050565b600061147d82611029565b6114878185611461565b9350611497818560208601611045565b6114a08161106f565b840191505092915050565b6000610160830160008301516114c460008601826112d7565b5060208301516114d7602086018261141e565b5060408301516114eb6101208601826112d7565b5060608301518482036101408601526115048282611472565b9150508091505092915050565b6000602082019050818103600083015261152b81846114ab565b905092915050565b600080fd5b6000610100828403121561154f5761154e611533565b5b81905092915050565b6000806000806000610160868803121561157557611574610f94565b5b6000611583888289016110fc565b955050602061159488828901611538565b94505061012086013567ffffffffffffffff8111156115b6576115b5610f99565b5b6115c2888289016111f4565b93509350506101406115d6888289016110fc565b9150509295509295909350565b610100820160008201516115fa600085018261132b565b50602082015161160d60408501826113c7565b50604082015161162060c085018261132b565b50505050565b60006101608201905061163c60008301876111bb565b61164960208301866115e3565b6116576101208301856111bb565b81810361014083015261166a8184611080565b905095945050505050565b600060408201905061168a60008301856111bb565b818103602083015261169c8184611080565b90509392505050565b60006040830160008301516116bd60008601826112d7565b50602083015184820360208601526116d58282611472565b9150508091505092915050565b600060208201905081810360008301526116fc81846116a5565b905092915050565b7f4e487b7100000000000000000000000000000000000000000000000000000000600052602260045260246000fd5b6000600282049050600182168061174b57607f821691505b60208210810361175e5761175d611704565b5b50919050565b7f4e487b7100000000000000000000000000000000000000000000000000000000600052603260045260246000fd5b600082905092915050565b7f4e487b7100000000000000000000000000000000000000000000000000000000600052604160045260246000fd5b60008190508160005260206000209050919050565b60006020601f8301049050919050565b600082821b905092915050565b60006008830261182f7fffffffffffffffffffffffffffffffffffffffffffffffffffffffffffffffff826117f2565b61183986836117f2565b95508019841693508086168417925050509392505050565b6000819050919050565b600061187661187161186c846110db565b611851565b6110db565b9050919050565b6000819050919050565b6118908361185b565b6118a461189c8261187d565b8484546117ff565b825550505050565b600090565b6118b96118ac565b6118c4818484611887565b505050565b5b818110156118e8576118dd6000826118b1565b6001810190506118ca565b5050565b601f82111561192d576118fe816117cd565b611907846117e2565b81016020851015611916578190505b61192a611922856117e2565b8301826118c9565b50505b505050565b600082821c905092915050565b600061195060001984600802611932565b1980831691505092915050565b6000611969838361193f565b9150826002028217905092915050565b6119838383611793565b67ffffffffffffffff81111561199c5761199b61179e565b5b6119a68254611733565b6119b18282856118ec565b6000601f8311600181146119e057600084156119ce578287013590505b6119d8858261195d565b865550611a40565b601f1984166119ee866117cd565b60005b82811015611a16578489013582556001820191506020850194506020810190506119f1565b86831015611a335784890135611a2f601f89168261193f565b8355505b6001600288020188555050505b50505050505050565b600080fd5b611a578261106f565b810181811067ffffffffffffffff82111715611a7657611a7561179e565b5b80604052505050565b6000611a89610f8a565b9050611a958282611a4e565b919050565b600067ffffffffffffffff821115611ab557611ab461179e565b5b602082029050919050565b6000611ad3611ace84611a9a565b611a7f565b90508060208402830185811115611aed57611aec6111ef565b5b835b81811015611b165780611b0288826110fc565b845260208401935050602081019050611aef565b5050509392505050565b600082601f830112611b3557611b346111e5565b5b6002611b42848285611ac0565b91505092915050565b600067ffffffffffffffff821115611b6657611b6561179e565b5b602082029050919050565b6000611b84611b7f84611b4b565b611a7f565b90508060408402830185811115611b9e57611b9d6111ef565b5b835b81811015611bc75780611bb38882611b20565b845260208401935050604081019050611ba0565b5050509392505050565b600082601f830112611be657611be56111e5565b5b6002611bf3848285611b71565b91505092915050565b60006101008284031215611c1357611c12611a49565b5b611c1d6060611a7f565b90506000611c2d84828501611b20565b6000830152506040611c4184828501611bd1565b60208301525060c0611c5584828501611b20565b60408301525092915050565b60006101008284031215611c7857611c77610f94565b5b6000611c8684828501611bfc565b91505092915050565b611c9882611029565b67ffffffffffffffff811115611cb157611cb061179e565b5b611cbb8254611733565b611cc68282856118ec565b600060209050601f831160018114611cf95760008415611ce7578287015190505b611cf1858261195d565b865550611d59565b601f198416611d07866117cd565b60005b82811015611d2f57848901518255600182019150602085019450602081019050611d0a565b86831015611d4c5784890151611d48601f89168261193f565b8355505b6001600288020188555050505b50505050505056fea264697066735822122069d405ce59afb60fbd124a793f95179a11aede5e65481e914d5e5213a6219af164736f6c63430008130033",
  "linkReferences": {},
  "deployedLinkReferences": {}
}