{
  "_format": "hh-sol-artifact-1",
  "contractName": "SPPS",
  "sourceName": "contracts/SPPS.sol",
  "abi": [
    {
      "inputs": [
        {
          "internalType": "uint256",
          "name": "yield",
          "type": "uint256"
        },
        {
          "components": [
            {
              "internalType": "uint256[2]",
              "name": "pi_a",
              "type": "uint256[2]"
            },
            {
              "internalType": "uint256[2][2]",
              "name": "pi_b",
              "type": "uint256[2][2]"
            },
            {
              "internalType": "uint256[2]",
              "name": "pi_c",
              "type": "uint256[2]"
            }
          ],
          "internalType": "struct SPPS.Proof",
          "name": "proof",
          "type": "tuple"
        },
        {
          "internalType": "string",
          "name": "balanceHash",
          "type": "string"
        },
        {
          "internalType": "uint256",
          "name": "blockNumber",
          "type": "uint256"
        },
        {
          "internalType": "uint256",
          "name": "assetPrice",
          "type": "uint256"
        }
      ],
      "name": "addPeriodProof",
      "outputs": [],
      "stateMutability": "nonpayable",
      "type": "function"
    },
    {
      "inputs": [
        {
          "internalType": "string",
          "name": "newSinal",
          "type": "string"
        },
        {
          "internalType": "uint256",
          "name": "assetPrice",
          "type": "uint256"
        }
      ],
      "name": "addSignal",
      "outputs": [],
      "stateMutability": "nonpayable",
      "type": "function"
    },
    {
      "inputs": [
        {
          "internalType": "address",
          "name": "trader",
          "type": "address"
        },
        {
          "internalType": "uint256",
          "name": "tradeId",
          "type": "uint256"
        },
        {
          "internalType": "uint256",
          "name": "tradeBlock",
          "type": "uint256"
        }
      ],
      "name": "changeTradeTime",
      "outputs": [],
      "stateMutability": "nonpayable",
      "type": "function"
    },
    {
      "inputs": [
        {
          "internalType": "address",
          "name": "trader",
          "type": "address"
        },
        {
          "internalType": "uint256",
          "name": "index",
          "type": "uint256"
        }
      ],
      "name": "getPeriodProof",
      "outputs": [
        {
          "components": [
            {
              "internalType": "uint256",
              "name": "yield",
              "type": "uint256"
            },
            {
              "components": [
                {
                  "internalType": "uint256[2]",
                  "name": "pi_a",
                  "type": "uint256[2]"
                },
                {
                  "internalType": "uint256[2][2]",
                  "name": "pi_b",
                  "type": "uint256[2][2]"
                },
                {
                  "internalType": "uint256[2]",
                  "name": "pi_c",
                  "type": "uint256[2]"
                }
              ],
              "internalType": "struct SPPS.Proof",
              "name": "proof",
              "type": "tuple"
            },
            {
              "internalType": "uint256",
              "name": "blockNumber",
              "type": "uint256"
            },
            {
              "internalType": "uint256",
              "name": "assetPrice",
              "type": "uint256"
            },
            {
              "internalType": "string",
              "name": "newBalanceHash",
              "type": "string"
            }
          ],
          "internalType": "struct SPPS.PeriodProof",
          "name": "",
          "type": "tuple"
        }
      ],
      "stateMutability": "view",
      "type": "function"
    },
    {
      "inputs": [
        {
          "internalType": "address",
          "name": "trader",
          "type": "address"
        }
      ],
      "name": "getProofLen",
      "outputs": [
        {
          "internalType": "uint256",
          "name": "",
          "type": "uint256"
        }
      ],
      "stateMutability": "view",
      "type": "function"
    },
    {
      "inputs": [
        {
          "internalType": "address",
          "name": "trader",
          "type": "address"
        },
        {
          "internalType": "uint256",
          "name": "index",
          "type": "uint256"
        }
      ],
      "name": "getSignal",
      "outputs": [
        {
          "components": [
            {
              "internalType": "uint256",
              "name": "blockNumber",
              "type": "uint256"
            },
            {
              "internalType": "uint256",
              "name": "assetPrice",
              "type": "uint256"
            },
            {
              "internalType": "string",
              "name": "hash",
              "type": "string"
            }
          ],
          "internalType": "struct SPPS.Signal",
          "name": "",
          "type": "tuple"
        }
      ],
      "stateMutability": "view",
      "type": "function"
    },
    {
      "inputs": [
        {
          "internalType": "address",
          "name": "trader",
          "type": "address"
        }
      ],
      "name": "getTradeLen",
      "outputs": [
        {
          "internalType": "uint256",
          "name": "",
          "type": "uint256"
        }
      ],
      "stateMutability": "view",
      "type": "function"
    },
    {
      "inputs": [],
      "name": "getTradersCount",
      "outputs": [
        {
          "internalType": "uint256",
          "name": "",
          "type": "uint256"
        }
      ],
      "stateMutability": "view",
      "type": "function"
    },
    {
      "inputs": [
        {
          "internalType": "address",
          "name": "",
          "type": "address"
        }
      ],
      "name": "metaData",
      "outputs": [
        {
          "internalType": "string",
          "name": "",
          "type": "string"
        }
      ],
      "stateMutability": "view",
      "type": "function"
    },
    {
      "inputs": [
        {
          "internalType": "string",
          "name": "_metaData",
          "type": "string"
        }
      ],
      "name": "newTrader",
      "outputs": [],
      "stateMutability": "nonpayable",
      "type": "function"
    },
    {
      "inputs": [
        {
          "internalType": "address",
          "name": "",
          "type": "address"
        },
        {
          "internalType": "uint256",
          "name": "",
          "type": "uint256"
        }
      ],
      "name": "periodProofs",
      "outputs": [
        {
          "internalType": "uint256",
          "name": "yield",
          "type": "uint256"
        },
        {
          "components": [
            {
              "internalType": "uint256[2]",
              "name": "pi_a",
              "type": "uint256[2]"
            },
            {
              "internalType": "uint256[2][2]",
              "name": "pi_b",
              "type": "uint256[2][2]"
            },
            {
              "internalType": "uint256[2]",
              "name": "pi_c",
              "type": "uint256[2]"
            }
          ],
          "internalType": "struct SPPS.Proof",
          "name": "proof",
          "type": "tuple"
        },
        {
          "internalType": "uint256",
          "name": "blockNumber",
          "type": "uint256"
        },
        {
          "internalType": "uint256",
          "name": "assetPrice",
          "type": "uint256"
        },
        {
          "internalType": "string",
          "name": "newBalanceHash",
          "type": "string"
        }
      ],
      "stateMutability": "view",
      "type": "function"
    },
    {
      "inputs": [
        {
          "internalType": "address",
          "name": "",
          "type": "address"
        },
        {
          "internalType": "uint256",
          "name": "",
          "type": "uint256"
        }
      ],
      "name": "signals",
      "outputs": [
        {
          "internalType": "uint256",
          "name": "blockNumber",
          "type": "uint256"
        },
        {
          "internalType": "uint256",
          "name": "assetPrice",
          "type": "uint256"
        },
        {
          "internalType": "string",
          "name": "hash",
          "type": "string"
        }
      ],
      "stateMutability": "view",
      "type": "function"
    },
    {
      "inputs": [
        {
          "internalType": "uint256",
          "name": "",
          "type": "uint256"
        }
      ],
      "name": "traders",
      "outputs": [
        {
          "internalType": "address",
          "name": "",
          "type": "address"
        }
      ],
      "stateMutability": "view",
      "type": "function"
    }
  ],
  "bytecode": "0x608060405234801561001057600080fd5b50611ea0806100206000396000f3fe608060405234801561001057600080fd5b50600436106100cf5760003560e01c806332080d601161008c5780635ff6785b116100665780635ff6785b146102365780639d722489146102525780639dff14cb14610286578063e56b9d24146102b8576100cf565b806332080d60146101cc5780633efe8b45146101ea57806356a3b5701461021a576100cf565b80630686ddd9146100d45780630cafc6a314610104578063135e563d1461012057806319380c8a146101505780632eea92d6146101805780632f6299851461019c575b600080fd5b6100ee60048036038101906100e9919061104e565b6102e8565b6040516100fb919061110b565b60405180910390f35b61011e60048036038101906101199190611163565b610388565b005b61013a600480360381019061013591906111b6565b6103f4565b60405161014791906111f2565b60405180910390f35b61016a6004803603810190610165919061104e565b610433565b604051610177919061121c565b60405180910390f35b61019a6004803603810190610195919061129c565b61047f565b005b6101b660048036038101906101b1919061104e565b610535565b6040516101c3919061121c565b60405180910390f35b6101d4610581565b6040516101e1919061121c565b60405180910390f35b61020460048036038101906101ff91906112e9565b61058d565b6040516102119190611577565b60405180910390f35b610234600480360381019061022f91906115be565b6107d2565b005b610250600480360381019061024b919061165c565b61094c565b005b61026c600480360381019061026791906112e9565b610a4a565b60405161027d9594939291906116ff565b60405180910390f35b6102a0600480360381019061029b91906112e9565b610c36565b6040516102af9392919061175d565b60405180910390f35b6102d260048036038101906102cd91906112e9565b610d05565b6040516102df91906117eb565b60405180910390f35b600360205280600052604060002060009150905080546103079061183c565b80601f01602080910402602001604051908101604052809291908181526020018280546103339061183c565b80156103805780601f1061035557610100808354040283529160200191610380565b820191906000526020600020905b81548152906001019060200180831161036357829003601f168201915b505050505081565b80600160008573ffffffffffffffffffffffffffffffffffffffff1673ffffffffffffffffffffffffffffffffffffffff16815260200190815260200160002083815481106103da576103d961186d565b5b906000526020600020906003020160000181905550505050565b6000818154811061040457600080fd5b906000526020600020016000915054906101000a900473ffffffffffffffffffffffffffffffffffffffff1681565b6000600160008373ffffffffffffffffffffffffffffffffffffffff1673ffffffffffffffffffffffffffffffffffffffff168152602001908152602001600020805490509050919050565b6000339080600181540180825580915050600190039060005260206000200160009091909190916101000a81548173ffffffffffffffffffffffffffffffffffffffff021916908373ffffffffffffffffffffffffffffffffffffffff1602179055508181600360003373ffffffffffffffffffffffffffffffffffffffff1673ffffffffffffffffffffffffffffffffffffffff1681526020019081526020016000209182610530929190611a82565b505050565b6000600260008373ffffffffffffffffffffffffffffffffffffffff1673ffffffffffffffffffffffffffffffffffffffff168152602001908152602001600020805490509050919050565b60008080549050905090565b610595610e25565b600260008473ffffffffffffffffffffffffffffffffffffffff1673ffffffffffffffffffffffffffffffffffffffff16815260200190815260200160002082815481106105e6576105e561186d565b5b90600052602060002090600c02016040518060a0016040529081600082015481526020016001820160405180606001604052908160008201600280602002604051908101604052809291908260028015610655576020028201915b815481526020019060010190808311610641575b5050505050815260200160028201600280602002604051908101604052809291906000905b828210156106d3578382600202016002806020026040519081016040528092919082600280156106bf576020028201915b8154815260200190600101908083116106ab575b50505050508152602001906001019061067a565b50505050815260200160068201600280602002604051908101604052809291908260028015610717576020028201915b815481526020019060010190808311610703575b505050505081525050815260200160098201548152602001600a8201548152602001600b820180546107489061183c565b80601f01602080910402602001604051908101604052809291908181526020018280546107749061183c565b80156107c15780601f10610796576101008083540402835291602001916107c1565b820191906000526020600020905b8154815290600101906020018083116107a457829003601f168201915b505050505081525050905092915050565b60006040518060a00160405280888152602001878036038101906107f69190611d6a565b815260200184815260200183815260200186868080601f016020809104026020016040519081016040528093929190818152602001838380828437600081840152601f19601f820116905080830192505050505050508152509050600260003373ffffffffffffffffffffffffffffffffffffffff1673ffffffffffffffffffffffffffffffffffffffff1681526020019081526020016000208190806001815401808255809150506001900390600052602060002090600c0201600090919091909150600082015181600001556020820151816001016000820151816000019060026108e4929190610e5a565b506020820151816002019060026108fc929190610e9a565b50604082015181600601906002610914929190610e5a565b50505060408201518160090155606082015181600a0155608082015181600b0190816109409190611d98565b50505050505050505050565b6000604051806060016040528043815260200183815260200185858080601f016020809104026020016040519081016040528093929190818152602001838380828437600081840152601f19601f820116905080830192505050505050508152509050600160003373ffffffffffffffffffffffffffffffffffffffff1673ffffffffffffffffffffffffffffffffffffffff16815260200190815260200160002081908060018154018082558091505060019003906000526020600020906003020160009091909190915060008201518160000155602082015181600101556040820151816002019081610a419190611d98565b50505050505050565b60026020528160005260406000208181548110610a6657600080fd5b90600052602060002090600c0201600091509150508060000154908060010160405180606001604052908160008201600280602002604051908101604052809291908260028015610acc576020028201915b815481526020019060010190808311610ab8575b5050505050815260200160028201600280602002604051908101604052809291906000905b82821015610b4a57838260020201600280602002604051908101604052809291908260028015610b36576020028201915b815481526020019060010190808311610b22575b505050505081526020019060010190610af1565b50505050815260200160068201600280602002604051908101604052809291908260028015610b8e576020028201915b815481526020019060010190808311610b7a575b5050505050815250509080600901549080600a01549080600b018054610bb39061183c565b80601f0160208091040260200160405190810160405280929190818152602001828054610bdf9061183c565b8015610c2c5780601f10610c0157610100808354040283529160200191610c2c565b820191906000526020600020905b815481529060010190602001808311610c0f57829003601f168201915b5050505050905085565b60016020528160005260406000208181548110610c5257600080fd5b906000526020600020906003020160009150915050806000015490806001015490806002018054610c829061183c565b80601f0160208091040260200160405190810160405280929190818152602001828054610cae9061183c565b8015610cfb5780601f10610cd057610100808354040283529160200191610cfb565b820191906000526020600020905b815481529060010190602001808311610cde57829003601f168201915b5050505050905083565b610d0d610eea565b600160008473ffffffffffffffffffffffffffffffffffffffff1673ffffffffffffffffffffffffffffffffffffffff1681526020019081526020016000208281548110610d5e57610d5d61186d565b5b90600052602060002090600302016040518060600160405290816000820154815260200160018201548152602001600282018054610d9b9061183c565b80601f0160208091040260200160405190810160405280929190818152602001828054610dc79061183c565b8015610e145780601f10610de957610100808354040283529160200191610e14565b820191906000526020600020905b815481529060010190602001808311610df757829003601f168201915b505050505081525050905092915050565b6040518060a0016040528060008152602001610e3f610f0b565b81526020016000815260200160008152602001606081525090565b8260028101928215610e89579160200282015b82811115610e88578251825591602001919060010190610e6d565b5b509050610e969190610f3e565b5090565b82600280028101928215610ed9579160200282015b82811115610ed857825182906002610ec8929190610e5a565b5091602001919060020190610eaf565b5b509050610ee69190610f5b565b5090565b60405180606001604052806000815260200160008152602001606081525090565b6040518060600160405280610f1e610f7f565b8152602001610f2b610fa1565b8152602001610f38610f7f565b81525090565b5b80821115610f57576000816000905550600101610f3f565b5090565b5b80821115610f7b5760008181610f729190610fce565b50600201610f5c565b5090565b6040518060400160405280600290602082028036833780820191505090505090565b60405180604001604052806002905b610fb8610f7f565b815260200190600190039081610fb05790505090565b506000815560010160009055565b6000604051905090565b600080fd5b600080fd5b600073ffffffffffffffffffffffffffffffffffffffff82169050919050565b600061101b82610ff0565b9050919050565b61102b81611010565b811461103657600080fd5b50565b60008135905061104881611022565b92915050565b60006020828403121561106457611063610fe6565b5b600061107284828501611039565b91505092915050565b600081519050919050565b600082825260208201905092915050565b60005b838110156110b557808201518184015260208101905061109a565b60008484015250505050565b6000601f19601f8301169050919050565b60006110dd8261107b565b6110e78185611086565b93506110f7818560208601611097565b611100816110c1565b840191505092915050565b6000602082019050818103600083015261112581846110d2565b905092915050565b6000819050919050565b6111408161112d565b811461114b57600080fd5b50565b60008135905061115d81611137565b92915050565b60008060006060848603121561117c5761117b610fe6565b5b600061118a86828701611039565b935050602061119b8682870161114e565b92505060406111ac8682870161114e565b9150509250925092565b6000602082840312156111cc576111cb610fe6565b5b60006111da8482850161114e565b91505092915050565b6111ec81611010565b82525050565b600060208201905061120760008301846111e3565b92915050565b6112168161112d565b82525050565b6000602082019050611231600083018461120d565b92915050565b600080fd5b600080fd5b600080fd5b60008083601f84011261125c5761125b611237565b5b8235905067ffffffffffffffff8111156112795761127861123c565b5b60208301915083600182028301111561129557611294611241565b5b9250929050565b600080602083850312156112b3576112b2610fe6565b5b600083013567ffffffffffffffff8111156112d1576112d0610feb565b5b6112dd85828601611246565b92509250509250929050565b60008060408385031215611300576112ff610fe6565b5b600061130e85828601611039565b925050602061131f8582860161114e565b9150509250929050565b6113328161112d565b82525050565b600060029050919050565b600081905092915050565b6000819050919050565b60006113648383611329565b60208301905092915050565b6000602082019050919050565b61138681611338565b6113908184611343565b925061139b8261134e565b8060005b838110156113cc5781516113b38782611358565b96506113be83611370565b92505060018101905061139f565b505050505050565b600060029050919050565b600081905092915050565b6000819050919050565b6000611400838361137d565b60408301905092915050565b6000602082019050919050565b611422816113d4565b61142c81846113df565b9250611437826113ea565b8060005b8381101561146857815161144f87826113f4565b965061145a8361140c565b92505060018101905061143b565b505050505050565b61010082016000820151611487600085018261137d565b50602082015161149a6040850182611419565b5060408201516114ad60c085018261137d565b50505050565b600082825260208201905092915050565b60006114cf8261107b565b6114d981856114b3565b93506114e9818560208601611097565b6114f2816110c1565b840191505092915050565b6000610180830160008301516115166000860182611329565b5060208301516115296020860182611470565b50604083015161153d610120860182611329565b506060830151611551610140860182611329565b50608083015184820361016086015261156a82826114c4565b9150508091505092915050565b6000602082019050818103600083015261159181846114fd565b905092915050565b600080fd5b600061010082840312156115b5576115b4611599565b5b81905092915050565b60008060008060008061018087890312156115dc576115db610fe6565b5b60006115ea89828a0161114e565b96505060206115fb89828a0161159e565b95505061012087013567ffffffffffffffff81111561161d5761161c610feb565b5b61162989828a01611246565b945094505061014061163d89828a0161114e565b92505061016061164f89828a0161114e565b9150509295509295509295565b60008060006040848603121561167557611674610fe6565b5b600084013567ffffffffffffffff81111561169357611692610feb565b5b61169f86828701611246565b935093505060206116b28682870161114e565b9150509250925092565b610100820160008201516116d3600085018261137d565b5060208201516116e66040850182611419565b5060408201516116f960c085018261137d565b50505050565b600061018082019050611715600083018861120d565b61172260208301876116bc565b61173061012083018661120d565b61173e61014083018561120d565b81810361016083015261175181846110d2565b90509695505050505050565b6000606082019050611772600083018661120d565b61177f602083018561120d565b818103604083015261179181846110d2565b9050949350505050565b60006060830160008301516117b36000860182611329565b5060208301516117c66020860182611329565b50604083015184820360408601526117de82826114c4565b9150508091505092915050565b60006020820190508181036000830152611805818461179b565b905092915050565b7f4e487b7100000000000000000000000000000000000000000000000000000000600052602260045260246000fd5b6000600282049050600182168061185457607f821691505b6020821081036118675761186661180d565b5b50919050565b7f4e487b7100000000000000000000000000000000000000000000000000000000600052603260045260246000fd5b600082905092915050565b7f4e487b7100000000000000000000000000000000000000000000000000000000600052604160045260246000fd5b60008190508160005260206000209050919050565b60006020601f8301049050919050565b600082821b905092915050565b6000600883026119387fffffffffffffffffffffffffffffffffffffffffffffffffffffffffffffffff826118fb565b61194286836118fb565b95508019841693508086168417925050509392505050565b6000819050919050565b600061197f61197a6119758461112d565b61195a565b61112d565b9050919050565b6000819050919050565b61199983611964565b6119ad6119a582611986565b848454611908565b825550505050565b600090565b6119c26119b5565b6119cd818484611990565b505050565b5b818110156119f1576119e66000826119ba565b6001810190506119d3565b5050565b601f821115611a3657611a07816118d6565b611a10846118eb565b81016020851015611a1f578190505b611a33611a2b856118eb565b8301826119d2565b50505b505050565b600082821c905092915050565b6000611a5960001984600802611a3b565b1980831691505092915050565b6000611a728383611a48565b9150826002028217905092915050565b611a8c838361189c565b67ffffffffffffffff811115611aa557611aa46118a7565b5b611aaf825461183c565b611aba8282856119f5565b6000601f831160018114611ae95760008415611ad7578287013590505b611ae18582611a66565b865550611b49565b601f198416611af7866118d6565b60005b82811015611b1f57848901358255600182019150602085019450602081019050611afa565b86831015611b3c5784890135611b38601f891682611a48565b8355505b6001600288020188555050505b50505050505050565b600080fd5b611b60826110c1565b810181811067ffffffffffffffff82111715611b7f57611b7e6118a7565b5b80604052505050565b6000611b92610fdc565b9050611b9e8282611b57565b919050565b600067ffffffffffffffff821115611bbe57611bbd6118a7565b5b602082029050919050565b6000611bdc611bd784611ba3565b611b88565b90508060208402830185811115611bf657611bf5611241565b5b835b81811015611c1f5780611c0b888261114e565b845260208401935050602081019050611bf8565b5050509392505050565b600082601f830112611c3e57611c3d611237565b5b6002611c4b848285611bc9565b91505092915050565b600067ffffffffffffffff821115611c6f57611c6e6118a7565b5b602082029050919050565b6000611c8d611c8884611c54565b611b88565b90508060408402830185811115611ca757611ca6611241565b5b835b81811015611cd05780611cbc8882611c29565b845260208401935050604081019050611ca9565b5050509392505050565b600082601f830112611cef57611cee611237565b5b6002611cfc848285611c7a565b91505092915050565b60006101008284031215611d1c57611d1b611b52565b5b611d266060611b88565b90506000611d3684828501611c29565b6000830152506040611d4a84828501611cda565b60208301525060c0611d5e84828501611c29565b60408301525092915050565b60006101008284031215611d8157611d80610fe6565b5b6000611d8f84828501611d05565b91505092915050565b611da18261107b565b67ffffffffffffffff811115611dba57611db96118a7565b5b611dc4825461183c565b611dcf8282856119f5565b600060209050601f831160018114611e025760008415611df0578287015190505b611dfa8582611a66565b865550611e62565b601f198416611e10866118d6565b60005b82811015611e3857848901518255600182019150602085019450602081019050611e13565b86831015611e555784890151611e51601f891682611a48565b8355505b6001600288020188555050505b50505050505056fea26469706673582212202937d175f444bee7c06c8376ab9f17339740d79946afda053e6cade0fbed4a2b64736f6c63430008130033",
  "linkReferences": {},
  "deployedLinkReferences": {}
}