{
  "_format": "hh-sol-artifact-1",
  "contractName": "SPPS",
  "sourceName": "contracts/SPPS.sol",
  "abi": [
    {
      "inputs": [
        {
          "internalType": "uint256",
          "name": "yield",
          "type": "uint256"
        },
        {
          "components": [
            {
              "internalType": "uint256[2]",
              "name": "pi_a",
              "type": "uint256[2]"
            },
            {
              "internalType": "uint256[2][2]",
              "name": "pi_b",
              "type": "uint256[2][2]"
            },
            {
              "internalType": "uint256[2]",
              "name": "pi_c",
              "type": "uint256[2]"
            }
          ],
          "internalType": "struct SPPS.Proof",
          "name": "proof",
          "type": "tuple"
        },
        {
          "internalType": "string",
          "name": "balanceHash",
          "type": "string"
        },
        {
          "internalType": "uint256",
          "name": "blockNumber",
          "type": "uint256"
        }
      ],
      "name": "addPeriodProof",
      "outputs": [],
      "stateMutability": "nonpayable",
      "type": "function"
    },
    {
      "inputs": [
        {
          "internalType": "string",
          "name": "newSinal",
          "type": "string"
        }
      ],
      "name": "addSignal",
      "outputs": [],
      "stateMutability": "nonpayable",
      "type": "function"
    },
    {
      "inputs": [
        {
          "internalType": "address",
          "name": "trader",
          "type": "address"
        },
        {
          "internalType": "uint256",
          "name": "tradeId",
          "type": "uint256"
        },
        {
          "internalType": "uint256",
          "name": "tradeBlock",
          "type": "uint256"
        }
      ],
      "name": "changeTradeTime",
      "outputs": [],
      "stateMutability": "nonpayable",
      "type": "function"
    },
    {
      "inputs": [
        {
          "internalType": "address",
          "name": "trader",
          "type": "address"
        }
      ],
      "name": "getAllSignals",
      "outputs": [
        {
          "components": [
            {
              "internalType": "uint256",
              "name": "blockNumber",
              "type": "uint256"
            },
            {
              "internalType": "string",
              "name": "hash",
              "type": "string"
            }
          ],
          "internalType": "struct SPPS.Signal[]",
          "name": "",
          "type": "tuple[]"
        }
      ],
      "stateMutability": "view",
      "type": "function"
    },
    {
      "inputs": [
        {
          "internalType": "address",
          "name": "trader",
          "type": "address"
        }
      ],
      "name": "getProofLen",
      "outputs": [
        {
          "internalType": "uint256",
          "name": "",
          "type": "uint256"
        }
      ],
      "stateMutability": "view",
      "type": "function"
    },
    {
      "inputs": [
        {
          "internalType": "address",
          "name": "trader",
          "type": "address"
        },
        {
          "internalType": "uint256",
          "name": "index",
          "type": "uint256"
        }
      ],
      "name": "getSignal",
      "outputs": [
        {
          "components": [
            {
              "internalType": "uint256",
              "name": "blockNumber",
              "type": "uint256"
            },
            {
              "internalType": "string",
              "name": "hash",
              "type": "string"
            }
          ],
          "internalType": "struct SPPS.Signal",
          "name": "",
          "type": "tuple"
        }
      ],
      "stateMutability": "view",
      "type": "function"
    },
    {
      "inputs": [
        {
          "internalType": "address",
          "name": "trader",
          "type": "address"
        }
      ],
      "name": "getTradeLen",
      "outputs": [
        {
          "internalType": "uint256",
          "name": "",
          "type": "uint256"
        }
      ],
      "stateMutability": "view",
      "type": "function"
    },
    {
      "inputs": [],
      "name": "getTradersCount",
      "outputs": [
        {
          "internalType": "uint256",
          "name": "",
          "type": "uint256"
        }
      ],
      "stateMutability": "view",
      "type": "function"
    },
    {
      "inputs": [
        {
          "internalType": "address",
          "name": "",
          "type": "address"
        }
      ],
      "name": "metaData",
      "outputs": [
        {
          "internalType": "string",
          "name": "",
          "type": "string"
        }
      ],
      "stateMutability": "view",
      "type": "function"
    },
    {
      "inputs": [
        {
          "internalType": "string",
          "name": "_metaData",
          "type": "string"
        }
      ],
      "name": "newTrader",
      "outputs": [],
      "stateMutability": "nonpayable",
      "type": "function"
    },
    {
      "inputs": [
        {
          "internalType": "address",
          "name": "",
          "type": "address"
        },
        {
          "internalType": "uint256",
          "name": "",
          "type": "uint256"
        }
      ],
      "name": "periodProofs",
      "outputs": [
        {
          "internalType": "uint256",
          "name": "yield",
          "type": "uint256"
        },
        {
          "components": [
            {
              "internalType": "uint256[2]",
              "name": "pi_a",
              "type": "uint256[2]"
            },
            {
              "internalType": "uint256[2][2]",
              "name": "pi_b",
              "type": "uint256[2][2]"
            },
            {
              "internalType": "uint256[2]",
              "name": "pi_c",
              "type": "uint256[2]"
            }
          ],
          "internalType": "struct SPPS.Proof",
          "name": "proof",
          "type": "tuple"
        },
        {
          "internalType": "uint256",
          "name": "blockNumber",
          "type": "uint256"
        },
        {
          "internalType": "string",
          "name": "newBalanceHash",
          "type": "string"
        }
      ],
      "stateMutability": "view",
      "type": "function"
    },
    {
      "inputs": [
        {
          "internalType": "address",
          "name": "",
          "type": "address"
        },
        {
          "internalType": "uint256",
          "name": "",
          "type": "uint256"
        }
      ],
      "name": "signals",
      "outputs": [
        {
          "internalType": "uint256",
          "name": "blockNumber",
          "type": "uint256"
        },
        {
          "internalType": "string",
          "name": "hash",
          "type": "string"
        }
      ],
      "stateMutability": "view",
      "type": "function"
    },
    {
      "inputs": [
        {
          "internalType": "uint256",
          "name": "",
          "type": "uint256"
        }
      ],
      "name": "traders",
      "outputs": [
        {
          "internalType": "address",
          "name": "",
          "type": "address"
        }
      ],
      "stateMutability": "view",
      "type": "function"
    }
  ],
  "bytecode": "0x608060405234801561001057600080fd5b50611c3c806100206000396000f3fe608060405234801561001057600080fd5b50600436106100cf5760003560e01c806332080d601161008c5780639d722489116100665780639d722489146102365780639dff14cb14610269578063a712da551461029a578063e56b9d24146102b6576100cf565b806332080d60146101cc57806363db95c0146101ea57806371736f251461021a576100cf565b80630686ddd9146100d45780630cafc6a314610104578063135e563d1461012057806319380c8a146101505780632eea92d6146101805780632f6299851461019c575b600080fd5b6100ee60048036038101906100e99190610e4b565b6102e6565b6040516100fb9190610f08565b60405180910390f35b61011e60048036038101906101199190610f60565b610386565b005b61013a60048036038101906101359190610fb3565b6103f2565b6040516101479190610fef565b60405180910390f35b61016a60048036038101906101659190610e4b565b610431565b6040516101779190611019565b60405180910390f35b61019a60048036038101906101959190611099565b61047d565b005b6101b660048036038101906101b19190610e4b565b610533565b6040516101c39190611019565b60405180910390f35b6101d461057f565b6040516101e19190611019565b60405180910390f35b61020460048036038101906101ff9190610e4b565b61058b565b604051610211919061123e565b60405180910390f35b610234600480360381019061022f9190611285565b6106c5565b005b610250600480360381019061024b9190611310565b61082e565b60405161026094939291906114cb565b60405180910390f35b610283600480360381019061027e9190611310565b610a14565b60405161029192919061151a565b60405180910390f35b6102b460048036038101906102af9190611099565b610add565b005b6102d060048036038101906102cb9190611310565b610bca565b6040516102dd9190611587565b60405180910390f35b60036020528060005260406000206000915090508054610305906115d8565b80601f0160208091040260200160405190810160405280929190818152602001828054610331906115d8565b801561037e5780601f106103535761010080835404028352916020019161037e565b820191906000526020600020905b81548152906001019060200180831161036157829003601f168201915b505050505081565b80600160008573ffffffffffffffffffffffffffffffffffffffff1673ffffffffffffffffffffffffffffffffffffffff16815260200190815260200160002083815481106103d8576103d7611609565b5b906000526020600020906002020160000181905550505050565b6000818154811061040257600080fd5b906000526020600020016000915054906101000a900473ffffffffffffffffffffffffffffffffffffffff1681565b6000600160008373ffffffffffffffffffffffffffffffffffffffff1673ffffffffffffffffffffffffffffffffffffffff168152602001908152602001600020805490509050919050565b6000339080600181540180825580915050600190039060005260206000200160009091909190916101000a81548173ffffffffffffffffffffffffffffffffffffffff021916908373ffffffffffffffffffffffffffffffffffffffff1602179055508181600360003373ffffffffffffffffffffffffffffffffffffffff1673ffffffffffffffffffffffffffffffffffffffff168152602001908152602001600020918261052e92919061181e565b505050565b6000600260008373ffffffffffffffffffffffffffffffffffffffff1673ffffffffffffffffffffffffffffffffffffffff168152602001908152602001600020805490509050919050565b60008080549050905090565b6060600160008373ffffffffffffffffffffffffffffffffffffffff1673ffffffffffffffffffffffffffffffffffffffff168152602001908152602001600020805480602002602001604051908101604052809291908181526020016000905b828210156106ba578382906000526020600020906002020160405180604001604052908160008201548152602001600182018054610629906115d8565b80601f0160208091040260200160405190810160405280929190818152602001828054610655906115d8565b80156106a25780601f10610677576101008083540402835291602001916106a2565b820191906000526020600020905b81548152906001019060200180831161068557829003601f168201915b505050505081525050815260200190600101906105ec565b505050509050919050565b60006040518060800160405280878152602001868036038101906106e99190611b06565b815260200183815260200185858080601f016020809104026020016040519081016040528093929190818152602001838380828437600081840152601f19601f820116905080830192505050505050508152509050600260003373ffffffffffffffffffffffffffffffffffffffff1673ffffffffffffffffffffffffffffffffffffffff1681526020019081526020016000208190806001815401808255809150506001900390600052602060002090600b0201600090919091909150600082015181600001556020820151816001016000820151816000019060026107d1929190610ce0565b506020820151816002019060026107e9929190610d20565b50604082015181600601906002610801929190610ce0565b50505060408201518160090155606082015181600a0190816108239190611b34565b505050505050505050565b6002602052816000526040600020818154811061084a57600080fd5b90600052602060002090600b02016000915091505080600001549080600101604051806060016040529081600082016002806020026040519081016040528092919082600280156108b0576020028201915b81548152602001906001019080831161089c575b5050505050815260200160028201600280602002604051908101604052809291906000905b8282101561092e5783826002020160028060200260405190810160405280929190826002801561091a576020028201915b815481526020019060010190808311610906575b5050505050815260200190600101906108d5565b50505050815260200160068201600280602002604051908101604052809291908260028015610972576020028201915b81548152602001906001019080831161095e575b5050505050815250509080600901549080600a018054610991906115d8565b80601f01602080910402602001604051908101604052809291908181526020018280546109bd906115d8565b8015610a0a5780601f106109df57610100808354040283529160200191610a0a565b820191906000526020600020905b8154815290600101906020018083116109ed57829003601f168201915b5050505050905084565b60016020528160005260406000208181548110610a3057600080fd5b906000526020600020906002020160009150915050806000015490806001018054610a5a906115d8565b80601f0160208091040260200160405190810160405280929190818152602001828054610a86906115d8565b8015610ad35780601f10610aa857610100808354040283529160200191610ad3565b820191906000526020600020905b815481529060010190602001808311610ab657829003601f168201915b5050505050905082565b6000604051806040016040528043815260200184848080601f016020809104026020016040519081016040528093929190818152602001838380828437600081840152601f19601f820116905080830192505050505050508152509050600160003373ffffffffffffffffffffffffffffffffffffffff1673ffffffffffffffffffffffffffffffffffffffff168152602001908152602001600020819080600181540180825580915050600190039060005260206000209060020201600090919091909150600082015181600001556020820151816001019081610bc29190611b34565b505050505050565b610bd2610d70565b600160008473ffffffffffffffffffffffffffffffffffffffff1673ffffffffffffffffffffffffffffffffffffffff1681526020019081526020016000208281548110610c2357610c22611609565b5b906000526020600020906002020160405180604001604052908160008201548152602001600182018054610c56906115d8565b80601f0160208091040260200160405190810160405280929190818152602001828054610c82906115d8565b8015610ccf5780601f10610ca457610100808354040283529160200191610ccf565b820191906000526020600020905b815481529060010190602001808311610cb257829003601f168201915b505050505081525050905092915050565b8260028101928215610d0f579160200282015b82811115610d0e578251825591602001919060010190610cf3565b5b509050610d1c9190610d8a565b5090565b82600280028101928215610d5f579160200282015b82811115610d5e57825182906002610d4e929190610ce0565b5091602001919060020190610d35565b5b509050610d6c9190610da7565b5090565b604051806040016040528060008152602001606081525090565b5b80821115610da3576000816000905550600101610d8b565b5090565b5b80821115610dc75760008181610dbe9190610dcb565b50600201610da8565b5090565b506000815560010160009055565b6000604051905090565b600080fd5b600080fd5b600073ffffffffffffffffffffffffffffffffffffffff82169050919050565b6000610e1882610ded565b9050919050565b610e2881610e0d565b8114610e3357600080fd5b50565b600081359050610e4581610e1f565b92915050565b600060208284031215610e6157610e60610de3565b5b6000610e6f84828501610e36565b91505092915050565b600081519050919050565b600082825260208201905092915050565b60005b83811015610eb2578082015181840152602081019050610e97565b60008484015250505050565b6000601f19601f8301169050919050565b6000610eda82610e78565b610ee48185610e83565b9350610ef4818560208601610e94565b610efd81610ebe565b840191505092915050565b60006020820190508181036000830152610f228184610ecf565b905092915050565b6000819050919050565b610f3d81610f2a565b8114610f4857600080fd5b50565b600081359050610f5a81610f34565b92915050565b600080600060608486031215610f7957610f78610de3565b5b6000610f8786828701610e36565b9350506020610f9886828701610f4b565b9250506040610fa986828701610f4b565b9150509250925092565b600060208284031215610fc957610fc8610de3565b5b6000610fd784828501610f4b565b91505092915050565b610fe981610e0d565b82525050565b60006020820190506110046000830184610fe0565b92915050565b61101381610f2a565b82525050565b600060208201905061102e600083018461100a565b92915050565b600080fd5b600080fd5b600080fd5b60008083601f84011261105957611058611034565b5b8235905067ffffffffffffffff81111561107657611075611039565b5b6020830191508360018202830111156110925761109161103e565b5b9250929050565b600080602083850312156110b0576110af610de3565b5b600083013567ffffffffffffffff8111156110ce576110cd610de8565b5b6110da85828601611043565b92509250509250929050565b600081519050919050565b600082825260208201905092915050565b6000819050602082019050919050565b61111b81610f2a565b82525050565b600082825260208201905092915050565b600061113d82610e78565b6111478185611121565b9350611157818560208601610e94565b61116081610ebe565b840191505092915050565b60006040830160008301516111836000860182611112565b506020830151848203602086015261119b8282611132565b9150508091505092915050565b60006111b4838361116b565b905092915050565b6000602082019050919050565b60006111d4826110e6565b6111de81856110f1565b9350836020820285016111f085611102565b8060005b8581101561122c578484038952815161120d85826111a8565b9450611218836111bc565b925060208a019950506001810190506111f4565b50829750879550505050505092915050565b6000602082019050818103600083015261125881846111c9565b905092915050565b600080fd5b6000610100828403121561127c5761127b611260565b5b81905092915050565b600080600080600061016086880312156112a2576112a1610de3565b5b60006112b088828901610f4b565b95505060206112c188828901611265565b94505061012086013567ffffffffffffffff8111156112e3576112e2610de8565b5b6112ef88828901611043565b935093505061014061130388828901610f4b565b9150509295509295909350565b6000806040838503121561132757611326610de3565b5b600061133585828601610e36565b925050602061134685828601610f4b565b9150509250929050565b600060029050919050565b600081905092915050565b6000819050919050565b600061137c8383611112565b60208301905092915050565b6000602082019050919050565b61139e81611350565b6113a8818461135b565b92506113b382611366565b8060005b838110156113e45781516113cb8782611370565b96506113d683611388565b9250506001810190506113b7565b505050505050565b600060029050919050565b600081905092915050565b6000819050919050565b60006114188383611395565b60408301905092915050565b6000602082019050919050565b61143a816113ec565b61144481846113f7565b925061144f82611402565b8060005b83811015611480578151611467878261140c565b965061147283611424565b925050600181019050611453565b505050505050565b6101008201600082015161149f6000850182611395565b5060208201516114b26040850182611431565b5060408201516114c560c0850182611395565b50505050565b6000610160820190506114e1600083018761100a565b6114ee6020830186611488565b6114fc61012083018561100a565b81810361014083015261150f8184610ecf565b905095945050505050565b600060408201905061152f600083018561100a565b81810360208301526115418184610ecf565b90509392505050565b60006040830160008301516115626000860182611112565b506020830151848203602086015261157a8282611132565b9150508091505092915050565b600060208201905081810360008301526115a1818461154a565b905092915050565b7f4e487b7100000000000000000000000000000000000000000000000000000000600052602260045260246000fd5b600060028204905060018216806115f057607f821691505b602082108103611603576116026115a9565b5b50919050565b7f4e487b7100000000000000000000000000000000000000000000000000000000600052603260045260246000fd5b600082905092915050565b7f4e487b7100000000000000000000000000000000000000000000000000000000600052604160045260246000fd5b60008190508160005260206000209050919050565b60006020601f8301049050919050565b600082821b905092915050565b6000600883026116d47fffffffffffffffffffffffffffffffffffffffffffffffffffffffffffffffff82611697565b6116de8683611697565b95508019841693508086168417925050509392505050565b6000819050919050565b600061171b61171661171184610f2a565b6116f6565b610f2a565b9050919050565b6000819050919050565b61173583611700565b61174961174182611722565b8484546116a4565b825550505050565b600090565b61175e611751565b61176981848461172c565b505050565b5b8181101561178d57611782600082611756565b60018101905061176f565b5050565b601f8211156117d2576117a381611672565b6117ac84611687565b810160208510156117bb578190505b6117cf6117c785611687565b83018261176e565b50505b505050565b600082821c905092915050565b60006117f5600019846008026117d7565b1980831691505092915050565b600061180e83836117e4565b9150826002028217905092915050565b6118288383611638565b67ffffffffffffffff81111561184157611840611643565b5b61184b82546115d8565b611856828285611791565b6000601f8311600181146118855760008415611873578287013590505b61187d8582611802565b8655506118e5565b601f19841661189386611672565b60005b828110156118bb57848901358255600182019150602085019450602081019050611896565b868310156118d857848901356118d4601f8916826117e4565b8355505b6001600288020188555050505b50505050505050565b600080fd5b6118fc82610ebe565b810181811067ffffffffffffffff8211171561191b5761191a611643565b5b80604052505050565b600061192e610dd9565b905061193a82826118f3565b919050565b600067ffffffffffffffff82111561195a57611959611643565b5b602082029050919050565b60006119786119738461193f565b611924565b905080602084028301858111156119925761199161103e565b5b835b818110156119bb57806119a78882610f4b565b845260208401935050602081019050611994565b5050509392505050565b600082601f8301126119da576119d9611034565b5b60026119e7848285611965565b91505092915050565b600067ffffffffffffffff821115611a0b57611a0a611643565b5b602082029050919050565b6000611a29611a24846119f0565b611924565b90508060408402830185811115611a4357611a4261103e565b5b835b81811015611a6c5780611a5888826119c5565b845260208401935050604081019050611a45565b5050509392505050565b600082601f830112611a8b57611a8a611034565b5b6002611a98848285611a16565b91505092915050565b60006101008284031215611ab857611ab76118ee565b5b611ac26060611924565b90506000611ad2848285016119c5565b6000830152506040611ae684828501611a76565b60208301525060c0611afa848285016119c5565b60408301525092915050565b60006101008284031215611b1d57611b1c610de3565b5b6000611b2b84828501611aa1565b91505092915050565b611b3d82610e78565b67ffffffffffffffff811115611b5657611b55611643565b5b611b6082546115d8565b611b6b828285611791565b600060209050601f831160018114611b9e5760008415611b8c578287015190505b611b968582611802565b865550611bfe565b601f198416611bac86611672565b60005b82811015611bd457848901518255600182019150602085019450602081019050611baf565b86831015611bf15784890151611bed601f8916826117e4565b8355505b6001600288020188555050505b50505050505056fea26469706673582212209e596e1364f55efcf992e6f088f142b81eed14fe3dfecf47dee308c5398aa10164736f6c63430008130033",
  "linkReferences": {},
  "deployedLinkReferences": {}
}